:100000000C94EF000C9417010C9417010C94170139
:100010000C9417010C9417010C947B060C94170197
:100020000C9417010C9417010C9417010C941701F0
:100030000C9417010C9417010C9417010C941701E0
:100040000C9431060C9417010C94FF050C94D905FF
:100050000C9417010C9417010C9417010C941701C0
:100060000C9417010C94170100407A10F35A00A069
:10007000724E18090010A5D4E80000E87648170071
:1000800000E40B54020000CA9A3B000000E1F505B1
:10009000000080969800000040420F000000A086FB
:1000A00001000000102700000000E803000000002D
:1000B0006400000000000A000000000001000000D1
:1000C00000002C76D888DC674F0823DFC1DFAE59EB
:1000D000E1B1B796E5E3E453C63AE651997696E87E
:1000E000E6C28426EB898C9B62ED407C6FFCEFBC02
:1000F0009C9F40F2BAA56FA5F490055A2AF75C932D
:100100006B6CF9676DC11BFCE0E40D47FEF520E662
:10011000B500D0ED902E0300943577050080841E45
:10012000080000204E0A000000C80C333333330FA0
:10013000986E12831141EF8D2114893BE65516CF3D
:10014000FEE6DB18D1844B381BF77C1D901DA4BB49
:10015000E424203284725E228100C9F124ECA1E5FE
:100160003D27005EBCE2613FDD83C29C7E20A3FD93
:100170001F41009D23BE46DB65F88C11AF32CA5784
:10018000E9740000000800020100000304070000F9
:1001900000000000000000000000250028002B00E7
:1001A00000000000240027002A00000000002300B7
:1001B00026002900040404040404040402020202C8
:1001C000020203030303030301020408102040801A
:1001D00001020408102001020408102092061124D4
:1001E0001FBECFEFD8E0DEBFCDBF22E0A0E8B1E078
:1001F00001C01D92A135B207E1F711E0A0E0B1E026
:10020000E0EFF1E202C005900D92A038B107D9F7F6
:1002100010E0CFEED0E004C02197FE010E94FE0E58
:10022000CE3ED107C9F70E943B070C94F6100C9400
:1002300000000895AF92BF92CF92DF92EF92FF92AB
:100240000F931F93CF93DF936C017B018B01040FFE
:10025000151FEB015E01AE18BF08C017D10759F09A
:100260006991D601ED91FC910190F081E02DC601DC
:100270000995892B79F7C501DF91CF911F910F91D6
:10028000FF90EF90DF90CF90BF90AF900895FC016A
:10029000538D448D252F30E0842F90E0821B930BEB
:1002A000541710F0CF96089501970895FC01918D91
:1002B000828D981761F0A28DAE0FBF2FB11D5D9694
:1002C0008C91928D9F5F9F73928F90E008958FEF36
:1002D0009FEF0895FC01918D828D981731F0828DEA
:1002E000E80FF11D858D90E008958FEF9FEF089541
:1002F000FC01918D228D892F90E0805C9F4F821BA5
:1003000091098F73992708958FE891E00E947801F1
:1003100021E0892B09F420E0822F089580E090E00D
:10032000892B29F00E94840181110C94000008950A
:10033000FC01A48DA80FB92FB11DA35ABF4F2C915A
:10034000848D90E001968F739927848FA689B78951
:100350002C93A089B1898C91837080648C93938D48
:10036000848D981306C00288F389E02D80818F7DEB
:1003700080830895EF92FF920F931F93CF93DF93A3
:10038000EC0181E0888F9B8D8C8D98131AC0E889D1
:10039000F989808185FF15C09FB7F894EE89FF89A0
:1003A0006083E889F98980818370806480839FBF3E
:1003B00081E090E0DF91CF911F910F91FF90EF903E
:1003C0000895F62E0B8D10E00F5F1F4F0F7311274E
:1003D000E02E8C8D8E110CC00FB607FCFACFE88989
:1003E000F989808185FFF5CFCE010E949801F1CF78
:1003F000EB8DEC0FFD2FF11DE35AFF4FF0829FB7FD
:10040000F8940B8FEA89FB8980818062CFCFCF93EC
:10041000DF93EC01888D8823B9F0AA89BB89E8892C
:10042000F9898C9185FD03C0808186FD0DC00FB6D2
:1004300007FCF7CF8C9185FFF2CF808185FFEDCF50
:10044000CE010E949801E9CFDF91CF91089590E00D
:10045000FC01EE57FE4F2491FC01E853FE4F34910E
:10046000FC01EC54FE4FE491EE23C9F0222339F055
:10047000233001F1A8F4213019F1223029F1F0E004
:10048000EE0FFF1FEA56FE4FA591B4918FB7F89477
:10049000EC91611126C030953E233C938FBF0895A7
:1004A0002730A9F02830C9F0243049F78091800026
:1004B0008F7D03C0809180008F7780938000DFCF95
:1004C00084B58F7784BDDBCF84B58F7DFBCF8091E2
:1004D000B0008F778093B000D2CF8091B0008F7D35
:1004E000F9CF3E2BDACF3FB7F894809185019091F8
:1004F0008601A0918701B091880126B5A89B05C00F
:100500002F3F19F00196A11DB11D3FBFBA2FA92F92
:10051000982F8827BC01CD01620F711D811D911D8F
:1005200042E0660F771F881F991F4A95D1F70895FB
:100530008F929F92AF92BF92CF92DF92EF92FF92F3
:100540004B015C010E9473026B017C010E947302EB
:100550006C197D098E099F09683E734081059105DC
:10056000A8F321E0821A9108A108B10888EEC80E0C
:1005700083E0D81EE11CF11C81149104A104B10494
:1005800029F7FF90EF90DF90CF90BF90AF909F90B2
:100590008F9008954115510529F4EAE7F0E0808134
:1005A0008F7780836A307105B9F0CB01880F991F6E
:1005B000880F991F807267706860682B88E10FB69A
:1005C000F894A895809360000FBE60936000E0E609
:1005D000F0E0808180648083232BD9F483B7817F0E
:1005E000846083BFF89483B7816083BF85B78066DA
:1005F00085BF8F7D85BF7894889583B78E7F83BFB5
:100600007894452B29F4EAE7F0E0808180688083C4
:10061000089583B7817F846083BFF89483B7816036
:1006200083BF7894889583B78E7F83BF7894E9CF12
:10063000DC0180E0615090F09D919827E92FEF70E8
:10064000F0E0EE59FE4F2491E92FE295EF70F0E0D3
:10065000EE58FE4FE491822F8E27ECCF0895DC01F7
:100660002C911196ED91FC91F8948181822B8183DC
:100670009281322F30959323928387E090E0019707
:10068000F1F781818323818383E290E00197F1F781
:1006900090817894EFECF0E03197F1F7922381E0CC
:1006A00009F480E00895EF92FF920F931F93CF9388
:1006B000DF937C0108E010E0C0E0D1E0C7010E94B8
:1006C0002F038111CD2BDD0F01501109B9F78C2FAC
:1006D000DF91CF911F910F91FF90EF900895FC0152
:1006E00090810180F281E02D292F209560FF14C0B8
:1006F000F8948281822382838181892B8183A3E282
:10070000B0E01197F1F78281982B9283789487ED6E
:1007100090E00197F1F70895F89482818223828313
:100720008181892B8183AFEFB0E01197F1F782814E
:10073000982B928378948FE090E0EBCFDF92EF924A
:10074000FF920F931F93CF93DF93EC01D62EE42EED
:1007500008E010E0FF24F39461E08D2D8F2109F46F
:1007600060E0CE010E946F03FF0C01501109A1F758
:10077000E11010C0F894E981FA8191818881809517
:1007800089238183E981FA819281888180958923F7
:1007900082837894DF91CF911F910F91FF90EF901A
:1007A000DF900895EF92FF920F931F93CF93DF9303
:1007B0008C017B0140E065E50E949E03E70188E033
:1007C000E80EF11C699140E0C8010E949E03CE151D
:1007D000DF05C1F7DF91CF911F910F91FF90EF904F
:1007E0000895FC0190810180F281E02DF8948181CF
:1007F000292F20958223818378943DE743E050E0C0
:10080000315029F1DA011197F1F780818923C1F381
:10081000F8948281822382838181892B81837894D9
:10082000ABE7B7E01197F1F7F894818182238183D8
:10083000A3E1B1E01197F1F78081982381E009F0FD
:1008400080E07894E3E6F6E03197F1F7089580E0F0
:100850000895EF92FF920F931F93CF93DF937C0144
:100860008B01CCE2D2E08D819E810E94F103B70121
:100870008D819E810E94D20340E06EEB8D819E812E
:100880000E949E038D819E810E945303F801808304
:100890008D819E810E945303F80181838D819E8109
:1008A0000E945303F80182838D819E810E9453032D
:1008B000F80183838D819E810E945303F801848314
:1008C0008D819E810E945303F80185838D819E81D5
:1008D0000E945303F80186838D819E810E945303F9
:1008E000F80187838D819E810E945303F8018087E0
:1008F0008D819E81DF91CF911F910F91FF90EF909D
:100900000C94F103CF93DF93CDB7DEB729970FB6E1
:10091000F894DEBF0FBECDBFBE016F5F7F4F0E9458
:10092000290468E0CE0101960E9418039985891375
:1009300009C08D818F33C1F038F48F31B9F0807FD9
:10094000803F31F080E007C08F3521F08F37B9F755
:100950008CE001C08BE029960FB6F894DEBF0FBE85
:10096000CDBFDF91CF9108958AE0F5CF89E0F3CF35
:10097000FC0101900020E9F73197AF01481B590BAA
:10098000BC018FE891E00C941A01CF93DF930E9491
:10099000B804EC0188E191E00E94B8048C0F9D1F1F
:1009A000DF91CF9108958F929F92AF92BF92CF9295
:1009B000DF92EF92FF920F931F93CF93DF93CDB708
:1009C000DEB7A1970FB6F894DEBF0FBECDBF6C01A6
:1009D000092E000CEE08FF0897FF47C06DE28FE874
:1009E00091E00E94BA018C0122273327A9012C191A
:1009F0003D094E095F0919A2CE0181967C019AE05A
:100A0000892E912CA12CB12CCA01B901A501940108
:100A10000E94DC0E605DF70162937F0121153105B4
:100A20004105510589F790E080E0309719F0CF013A
:100A30000E94B804080F191F88E191E00E94B804D1
:100A4000800F911FA1960FB6F894DEBF0FBECDBFE9
:100A5000DF91CF911F910F91FF90EF90DF90CF909A
:100A6000BF90AF909F908F900895A701960119A213
:100A70008E010F5D1F4F8AE0C82ED12CE12CF12C86
:100A8000CA01B901A70196010E94DC0E605DF80160
:100A900062938F01211531054105510589F7309782
:100AA00029F0CF010E94B8048C01C6CF10E000E00D
:100AB000C3CFBF92CF92DF92EF92FF920F931F931B
:100AC000CF93DF93EC01B62EC72E8D85811105C023
:100AD000CE010E94F10381110EC01B861D861C866B
:100AE00080E0DF91CF911F910F91FF90EF90DF9009
:100AF000CF90BF90089540E060EFCE010E949E032A
:100B000001E0E12CD12C11E0CE010E942F03F82E40
:100B1000CE010E942F0391E0F91218C0813099F59F
:100B20001134D8F2DB86D11002C081E08D878B8131
:100B3000882399F22396EB2DFC2DCF01089629915D
:100B40002193E817F907D9F781E0CBCFEE2DF0E03C
:100B5000F8120FC08B851817A0F4DE01AE0FBF1F6F
:100B600013968C91802379F4F12C193008F41C87AA
:100B7000D12EEC0FFD1F8381902F909589238383C5
:100B80000AC08113F1CFFE01EE0DF11D8381802B90
:100B90008383FF24F3946F2DCE010E946F031F5FA8
:100BA000000F11F4E39401E087E08E1508F0ACCF5C
:100BB000B7CF1F920F920FB60F9211242F933F932E
:100BC0004F935F936F937F938F939F93AF93BF9355
:100BD000EF93FF938FE891E00E949801FF91EF91CE
:100BE000BF91AF919F918F917F916F915F914F9145
:100BF0003F912F910F900FBE0F901F9018951F924D
:100C00000F920FB60F9211242F938F939F93EF9310
:100C1000FF93E0919F01F091A0018081E091A501F7
:100C2000F091A60182FD1BC090818091A8018F5F89
:100C30008F732091A901821741F0E091A801F0E0A3
:100C4000E157FE4F958F8093A801FF91EF919F91FF
:100C50008F912F910F900FBE0F901F90189580814C
:100C6000F4CF1F920F920FB60F9211242F933F9340
:100C70008F939F93AF93BF93809181019091820155
:100C8000A0918301B09184013091800123E0230F72
:100C90002D3758F50196A11DB11D20938001809339
:100CA000810190938201A0938301B093840180918C
:100CB000850190918601A0918701B09188010196EC
:100CC000A11DB11D8093850190938601A09387019A
:100CD000B0938801BF91AF919F918F913F912F91D8
:100CE0000F900FBE0F901F90189526E8230F0296C5
:100CF000A11DB11DD2CF1F920F920FB60F921124DA
:100D00008F930FB6F894A8958091600088618093C6
:100D10006000109260000FBE8F910F900FBE0F9079
:100D20001F901895CF93DF9310929201109291012A
:100D300088EE93E0A0E0B0E080939301909394015B
:100D4000A0939501B09396018AE091E09093900171
:100D500080938F0185EC90E090939C0180939B01A0
:100D600084EC90E090939E0180939D0180EC90E054
:100D70009093A00180939F0181EC90E09093A20159
:100D80008093A10182EC90E09093A4018093A30151
:100D900086EC90E09093A6018093A5011092A801A3
:100DA0001092A9011092AA011092AB014AEC51E0F5
:100DB000FA01649186EB91E0FC0124912223C1F0B9
:100DC00030E0220F331FF901E056FE4FA591B49198
:100DD000F901EA56FE4FC591D4917FB7F8943C9142
:100DE000262F209532233C933881232328837FBFED
:100DF000FA01449140933F02FC018491E82FF0E016
:100E0000EE0FFF1FE655FE4F85919491909341029E
:100E10008093400210924A0210924C0210924B02B0
:100E20001092490210924802109247021092460214
:100E30001092450210924402109243021092420214
:100E400089E191E090933E0280933D028FE392E02E
:100E500090933202809331021092300210922C0251
:100E600089E080932D0281E080932E0280932F02EF
:100E7000DF91CF910895CF93DF93CDB7DEB7AB97D6
:100E80000FB6F894DEBF0FBECDBF789484B58260F4
:100E900084BD84B5816084BD85B5826085BD85B51E
:100EA000816085BD80916E00816080936E0010929C
:100EB0008100809181008260809381008091810017
:100EC00081608093810080918000816080938000A8
:100ED0008091B10084608093B1008091B000816006
:100EE0008093B00080917A00846080937A00809132
:100EF0007A00826080937A0080917A00816080938A
:100F00007A0080917A00806880937A001092C10004
:100F1000E0919F01F091A00182E08083E0919B012C
:100F2000F0919C011082E0919D01F0919E018FEC67
:100F300080831092A701E091A301F091A40186E0C3
:100F40008083E091A101F091A20180818061808382
:100F5000E091A101F091A201808188608083E091FD
:100F6000A101F091A201808180688083E091A101BC
:100F7000F091A20180818F7D808368EB7BE080E02F
:100F800090E00E9498028BE191E00E94C504E1ED9F
:100F9000F1E02491EDEBF1E08491882399F090E069
:100FA000880F991FFC01E056FE4FA591B491FC01FA
:100FB000EA56FE4F859194918FB7F894EC91E22B0D
:100FC000EC938FBFE0913102F091320213861586C7
:100FD0001486128611861086178216821582148254
:100FE00013821092300201E0BE016E5D7F4F80914E
:100FF0003102909132020E945905882309F408C2F7
:1010000067E0CE0182960E94180399A58913ECCF60
:1010100080912C02811128C080913102909132027E
:101020000E94F103BE016E5D7F4F8091310290916D
:1010300032020E94D20340E064EB80913102909131
:1010400032020E949E0380913102909132020E94EE
:101050002F03182F80913102909132020E94F103E8
:10106000111102C000932C02BE016F5F7F4FCE01B1
:1010700082960E94290410912D028AA1803109F4E0
:1010800031C2CE0182960E948204811750F4809171
:101090002D0280932D02809130028F5F8093300269
:1010A000A3CF8AA1803111F489E0F3CFCE018296DB
:1010B0000E948204EECF6CEB70E080E090E0D2C141
:1010C00067E771E080E090E0CDC16EEE72E080E015
:1010D00090E0C8C18832B1F08B3309F0FFC190FDB8
:1010E00038C1B801110F880B990B0E94CD0C20E07C
:1010F00030E040E85DE30E94080DF62EE72E582E02
:10110000492EECC18D818F3341F1A0F48F3109F06C
:10111000E5C1B80143E0759567954A95E1F7072E5B
:10112000000C880B990B0E94CD0C20E030E040E0D1
:101130005FE3E1CF8F3519F08F3799F2CFC1B80156
:1011400075956795072E000C880B990B0E94CD0CA6
:1011500020E030E040E05EE3CECFB80175956795C2
:1011600075956795072E000C880B990B0E94CD0C86
:1011700020E030E040E85EE3BECFF8848F812F2D81
:10118000281B330BB901072E000C880B990B0E940A
:10119000CD0C4B015C016F2D70E090E080E00E946F
:1011A000CB0C9B01AC01C501B4010E946A0E6B011E
:1011B0007C01B80175956795072E000C880B990B7B
:1011C0000E94CD0C20E030E040E85EE30E94FD0D7F
:1011D0009B01AC01C701B6010E94FE0D8ECFE0E07D
:1011E00070E09EEF82EC20E030E040E151E48E2E92
:1011F000972EA92EB82EC501B4010E94080D20E03B
:1012000030E040EA50E40E946A0E20E030E040E026
:1012100052E40E94FE0D60938A0170938B018093CB
:101220008C0190938D0183E0282E312C60918A01EE
:1012300070918B0180918C0190918D018E010F5FD7
:101240001F4F20E042E00E94760A5C01009709F4FB
:101250008BC0FC0101900020E9F731978F01081B3A
:10126000190BB8016F5F7F4F90E080E00E9429105A
:101270006C01009709F47DC0FC011082B5010E9449
:10128000EF1084E291E00E94B804A801B6018FE853
:1012900091E00E941A0188E191E00E94B804912C2B
:1012A000812C9801215031093BA72AA7801691066D
:1012B00009F481C085E391E00E94B804C4010E9452
:1012C000D304F601E80DF91DC114D10421F41092E4
:1012D0008901E9E8F1E0A0800A2C000CBB0830E3AA
:1012E000A31AB1088DE491E00E94B804C5010E94E0
:1012F000D304712C612CA114B104F1F564EF71E0F9
:1013000080E090E00E94980289E591E00E94B80494
:1013100061E089E00E94270260E971E080E090E0EE
:101320000E94980260E089E00E9427028AE191E031
:101330000E94C504EAA5FBA58E169F0630F468EE50
:1013400073E080E090E00E949802FFEF8F1A9F0AFE
:10135000ADCFF12CE12C90EC592E2FE7422EE0E09E
:1013600070E090EC8FE73FCF10E000E0D12CC12C73
:1013700088CF10E000E085CF6A147B04BCF664EFF0
:1013800071E080E090E00E9498028DE591E00E947B
:10139000B80461E089E00E94270268EC70E080E018
:1013A00090E00E94980260E089E00E9427028FEF9F
:1013B000681A780AE1CFC114D10419F0C6010E945D
:1013C000A00F68EB7BE080E090E00E94980221E0B3
:1013D000221A310809F02ACF0FE010E030E020E0B7
:1013E00050E040E069E070E08EE891E00E94CA02BF
:1013F0000150110999F782E691E00E94C50480E04E
:1014000090E0892B29F00E94840181110E94000044
:1014100080913102909132020E94F10340E06CEC25
:1014200080913102909132020E949E0340912C02E1
:1014300064E480913102909132020E949E03809177
:101440002E02882389F080912D028A3009F433CE50
:101450008B3009F435CE893009F037CE6EE570E077
:1014600080E090E00E949802E0913102F091320217
:1014700013861586148612861186108617821682A8
:10148000158214821382BE016E5D7F4F80913102FE
:10149000909132020E945905882329F067E0CE011D
:1014A00082960E941803BE016F5F7F4FCE01829625
:1014B0000E94290468E0CE0101960E9418039985D4
:1014C00089138DCE09811A8199818AA1823209F40A
:1014D00019CE08F0FFCD803109F44FCEEF2D7E2DCF
:1014E000C20181CE1A3008F0D2CDDECDEF920F933B
:1014F0001F93CF93DF93E80134E047FD34E1042EDE
:10150000000C550B57FF03C0519541955109E32E2F
:10151000022F242FAE010E94940ACE01DF91CF91B9
:101520001F910F91EF900895A9E0B0E0EAE9FAE089
:101530000C94CC0D6A01F22EB02E102FFBE3AF2ECF
:10154000A01608F41BE31F5F012F27E0AE014F5FD9
:101550005F4F0E94F30BBC018981982F99709130E5
:1015600009F43FC09BE2E1FC04C09E2D9170E0FCB9
:101570003AC05E2D5071E82FE87083FF46C084E0CA
:10158000911101C083E0EF2DE81B8F1508F0E0E01A
:10159000D6018E2F20E2552351F1992329F0D6014F
:1015A0009C93C60101966C0196012D5F3F4FE2FEB0
:1015B00024C08EE4D6018C9391E411969C931197EC
:1015C00012968C93D9018E2F90E281111BC0E20FED
:1015D000F32FF11D10828EEF9FEF2996ECE00C9413
:1015E000E80D9DE2C6CF90E2C4CF2D9381508111CA
:1015F000FCCFCE0ED11CE0E0D0CF8EE6D6018C938E
:1016000091E6DBCF9D938150E0CF482F447082FF5D
:101610003DC084E0911101C083E08F1510F4EF2DDF
:10162000E81BD6018E2F20E2552309F1992329F0DA
:10163000D6019C93C60101966C0196012D5F3F4F28
:10164000E2FE1BC089E4D6018C938EE411968C9344
:10165000119786E412968C93D9018E2F90E28823FD
:1016600009F4B5CF9D938150FACF2D93815081110C
:10167000FCCFCE0ED11CE0E0D9CF89E6D6018C9309
:101680008EE611968C93119786E6E4CF9B0177FF47
:1016900002C030E020E0A1E0B0E0911102C0B0E073
:1016A000A0E0F9013196AE0FBF1F8B2C912CBB200F
:1016B00009F461C05401EFEFAE1ABE0AAA0DBB1DBA
:1016C000FA161B0619F014F04F2D4A1B511188C051
:1016D000E3FC59C07601A42FB0E2A1114FC0C40EA3
:1016E000D11C992309F45BC040E0D6011196F601A4
:1016F00090836D01552309F448C0012F060F9A818C
:10170000582F507184FF03C0913309F40150101613
:101710000CF047C0093008F008E0EEE2FE2E5B0155
:10172000A01AB10885019194819491082F3F320746
:1017300029F4D601FC92F60131966F016217730706
:1017400094F1021713077CF5DB01A21BB30BAA244B
:10175000A394B12CAC0EBD1EAA0DBB1D11968C918D
:1017600021503109D601119628153905F4F0F601FA
:1017700080836D01DBCFB12CA12CA0CFF701B193F9
:101780007F01A150AACF9111B0CFD601942F50E381
:1017900002C05D9391509111FCCFC40ED11C40E06A
:1017A000ACCF01E0BACF80E3DBCF6217730731F42F
:1017B000963388F4953311F4552369F0F60180834C
:1017C000FD01842F90E2811108C0A40FB11D1C926D
:1017D00090E080E002CF81E3F1CF91938150F3CF8D
:1017E000911183CF8ACF283008F027E03327DA0120
:1017F000990F311D87FD916000966105710539F4DF
:1018000032602E5F3D9330E32A95E1F708959F3FC4
:1018100030F080387105610509F03C5F3C5F3D9315
:10182000913008F08068911DDF93CF931F930F9341
:10183000FF92EF92192F987F9695E92F969596959E
:10184000E90FFF27EE53FF4F99273327EE24FF249C
:10185000A701E70105900894079428F4360FE71EC6
:10186000F81E491F511D660F771F881F991F069488
:10187000A1F70590079428F4E70EF81E491F561F9C
:10188000C11D770F881F991F661F0694A1F7059049
:10189000079428F4F80E491F561FC71FD11D880F43
:1018A000991F661F771F0694A1F70590079420F4EF
:1018B000490F561FC71FD81F990F661F771F881F14
:1018C0000694A9F784911095177041F0D695C795A5
:1018D00057954795F794E7941A95C1F7E8E6F0E035
:1018E00068941590159135916591959105907FE2D9
:1018F0007395E118F10A430B560BC90BD009C0F7D9
:10190000E10CF11E431F561FC91FD01D7EF470331A
:1019100011F48A95E6CFE894015030F0080F0AF4EC
:101920000027021708F4202F2395022F7A3328F07E
:1019300079E37D932A95E9F710C07D932A9589F67E
:10194000069497956795379517951794E118F10ABE
:10195000430B560BC90BD00998F023957E917395D4
:101960007A3308F070E37C932013B8F77E917061AE
:101970007D9330F0839571E37D9370E32A95E1F7D1
:101980001124EF90FF900F911F91CF91DF91992734
:1019900087FD90950895E89409C097FB3EF49095D3
:1019A0008095709561957F4F8F4F9F4F9923A9F038
:1019B000F92F96E9BB279395F695879577956795C7
:1019C000B795F111F8CFFAF4BB0F11F460FF1BC00B
:1019D0006F5F7F4F8F4F9F4F16C0882311F096E99E
:1019E00011C0772321F09EE8872F762F05C066234C
:1019F00071F096E8862F70E060E02AF09A95660F05
:101A0000771F881FDAF7880F9695879597F90895BD
:101A10000E941B0D0C948C0D0E947E0D38F00E94CC
:101A2000850D20F0952311F00C94750D0C947B0D11
:101A300011240C94C00D0E949D0D70F3959FC1F36D
:101A4000950F50E0551F629FF001729FBB27F00D6C
:101A5000B11D639FAA27F00DB11DAA1F649F6627C1
:101A6000B00DA11D661F829F2227B00DA11D621F10
:101A7000739FB00DA11D621F839FA00D611D221FCA
:101A8000749F3327A00D611D231F849F600D211DAE
:101A9000822F762F6A2F11249F5750409AF0F1F031
:101AA00088234AF0EE0FFF1FBB1F661F771F881F9A
:101AB00091505040A9F79E3F510580F00C94750D50
:101AC0000C94C00D5F3FE4F3983ED4F38695779570
:101AD0006795B795F795E7959F5FC1F7FE2B880F40
:101AE000911D9695879597F9089597F99F6780E8D6
:101AF00070E060E008959FEF80EC089500240A9460
:101B00001616170618060906089500240A941216D8
:101B10001306140605060895092E0394000C11F40B
:101B2000882352F0BB0F40F4BF2B11F460FF04C0B8
:101B30006F5F7F4F8F4F9F4F089557FD9058440F11
:101B4000551F59F05F3F71F04795880F97FB991F1C
:101B500061F09F3F79F087950895121613061406D9
:101B6000551FF2CF4695F1DF08C016161706180666
:101B7000991FF1CF86957105610508940895E89441
:101B8000BB2766277727CB0197F908952F923F92BD
:101B90004F925F926F927F928F929F92AF92BF927D
:101BA000CF92DF92EF92FF920F931F93CF93DF9329
:101BB000CDB7DEB7CA1BDB0B0FB6F894DEBF0FBE86
:101BC000CDBF09942A88398848885F846E847D84D3
:101BD0008C849B84AA84B984C884DF80EE80FD80D5
:101BE0000C811B81AA81B981CE0FD11D0FB6F8944B
:101BF000DEBF0FBECDBFED0108955058BB27AA2709
:101C00000E94150E0C948C0D0E947E0D38F00E94DF
:101C1000850D20F039F49F3F19F426F40C947B0DC8
:101C20000EF4E095E7FB0C94750DE92F0E949D0DD5
:101C300058F3BA17620773078407950720F079F401
:101C4000A6F50C94BF0D0EF4E0950B2EBA2FA02D27
:101C50000B01B90190010C01CA01A0011124FF2759
:101C6000591B99F0593F50F4503E68F11A16F04054
:101C7000A22F232F342F4427585FF3CF4695379553
:101C80002795A795F0405395C9F77EF41F16BA0B18
:101C9000620B730B840BBAF09150A1F0FF0FBB1FC6
:101CA000661F771F881FC2F70EC0BA0F621F731F0F
:101CB000841F48F4879577956795B795F7959E3F6C
:101CC00008F0B0CF9395880F08F09927EE0F9795FD
:101CD000879508950E947E0E0C948C0D0E94850DB0
:101CE00058F00E947E0D40F029F45F3F29F00C94DB
:101CF000750D51110C94C00D0C947B0D0E949D0D1F
:101D000068F39923B1F3552391F3951B550BBB272A
:101D1000AA2762177307840738F09F5F5F4F220F6F
:101D2000331F441FAA1FA9F335D00E2E3AF0E0E866
:101D300032D091505040E695001CCAF72BD0FE2FB0
:101D400029D0660F771F881FBB1F26173707480744
:101D5000AB07B0E809F0BB0B802DBF01FF279358FC
:101D60005F4F3AF09E3F510578F00C94750D0C943E
:101D7000C00D5F3FE4F3983ED4F386957795679561
:101D8000B795F7959F5FC9F7880F911D9695879531
:101D900097F90895E1E0660F771F881FBB1F621750
:101DA00073078407BA0720F0621B730B840BBA0B0E
:101DB000EE1F88F7E0950895A1E21A2EAA1BBB1B1F
:101DC000FD010DC0AA1FBB1FEE1FFF1FA217B30707
:101DD000E407F50720F0A21BB30BE40BF50B661F1D
:101DE000771F881F991F1A9469F7609570958095E1
:101DF00090959B01AC01BD01CF010895EE0FFF1F2F
:101E00000590F491E02D09940F931F93CF93DF93E6
:101E10008230910510F482E090E0E0914F02F09161
:101E2000500230E020E0B0E0A0E0309799F42115B6
:101E3000310509F44AC0281B390B24303105D8F587
:101E40008A819B816115710589F1FB0193838283EE
:101E5000FE0111C040815181028113814817590749
:101E6000E0F04817590799F4109761F012960C9317
:101E7000129713961C933296CF01DF91CF911F9149
:101E80000F91089500934F0210935002F4CF211543
:101E9000310551F04217530738F0A901DB019A01CF
:101EA000BD01DF01F801C1CFEF01F9CF90935002DE
:101EB00080934F02CDCFFE01E20FF31F81939193E8
:101EC0002250310939832883D7CF20914D02309198
:101ED0004E02232B41F420910201309103013093F3
:101EE0004E0220934D0220910001309101012115F5
:101EF000310541F42DB73EB74091040150910501E1
:101F0000241B350BE0914D02F0914E02E217F307CE
:101F1000A0F42E1B3F0B2817390778F0AC014E5F59
:101F20005F4F2417350748F04E0F5F1F50934E0246
:101F300040934D02819391939FCFF0E0E0E09CCFDE
:101F4000CF93DF930097E9F0FC013297138212825E
:101F5000A0914F02B0915002ED0130E020E01097C7
:101F6000A1F420813181820F931F20914D02309185
:101F70004E022817390709F061C0F0934E02E09332
:101F80004D02DF91CF910895EA01CE17DF07E8F502
:101F90004A815B819E0141155105B1F7E901FB833F
:101FA000EA8349915991C40FD51FEC17FD0761F4DD
:101FB000808191810296840F951FE901998388831E
:101FC000828193819B838A83F0E0E0E012968D9179
:101FD0009C9113970097B9F52D913C911197CD01E4
:101FE0000296820F931F20914D0230914E022817C6
:101FF000390739F6309751F51092500210924F027E
:10200000B0934E02A0934D02BCCFD383C2834081D4
:102010005181840F951FC817D90761F44E5F5F4F38
:1020200088819981480F591F518340838A819B8100
:10203000938382832115310509F0B0CFF0935002CC
:10204000E0934F029ECFFD01DC01C0CF13821282CC
:10205000D7CFB0E0A0E0EFE2F0E10C94C80D8C0126
:10206000009751F4CB010E94040F8C01C801CDB739
:10207000DEB7E0E10C94E40DFC01E60FF71F9C01D4
:1020800022503109E217F30708F49DC0D901CD9120
:10209000DC911197C617D70798F0C530D10530F3FA
:1020A000CE0104978617970708F3C61BD70B229714
:1020B000C193D1936D937C93CF010E94A00FD6CF93
:1020C0005B01AC1ABD0A4C018C0E9D1EA0914F0203
:1020D000B0915002512C412CF12CE12C109731F58C
:1020E00080914D0290914E028815990509F05CC0CF
:1020F0004616570608F058C08091000190910101E2
:10210000009741F48DB79EB74091040150910501AD
:10211000841B950BE817F90708F055C0F0934E02A1
:10212000E0934D02F90171836083A0CF8D919C9162
:10213000119712966C90129713967C901397A8158E
:10214000B90559F56C0142E0C40ED11CCA14DB0478
:1021500020F1AC014A195B09DA011296159780F05B
:102160006282738251834083D9016D937C93E11421
:10217000F10471F0D7011396FC93EE93129776CF8A
:1021800022968C0F9D1FF90191838083F301EFCF7D
:10219000F0935002E0934F0269CF4816590608F4B5
:1021A0002C017D01D3019ACFCB010E94040F7C0149
:1021B000009749F0AE01B8010E94E610C8010E94E4
:1021C000A00F870153CF10E000E050CFFB01DC01EE
:1021D00002C001900D9241505040D8F70895FB0184
:1021E000DC0101900D920020E1F70895F894FFCFF3
:1021F00000005102800000000000BA011A014701EE
:102200000702780156016A010D0A00737461727445
:10221000696E670054656D706572617475726520D2
:1022200069733A200050726F63657373696E67203B
:10223000436861726163746572233A200043686188
:102240007261637465723A200044612000446974CD
:10225000200041726475696E6F3A2D20576F6B656F
:1022600020757020746F20646F20776F726B000090
:00000001FF
